:100000000C942A000C943C000C943C000C943C0092
:100010000C943C000C943C000C943C000C943C0070
:100020000C943C000C943C000C943C000C943C0060
:100030000C943C000C943C000C943C000C943C0050
:100040000C943C000C943C000C943C000C943C0040
:100050000C943C0011241FBECFE5D8E0DEBFCDBF1D
:1000600020E0A0E6B0E001C01D92A33AB207E1F79C
:100070000E943E000C94A7080C940000CF93DF93DD
:10008000CDB7DEB7A3970FB6F894DEBF0FBECDBFD6
:10009000198261E070E081E090E00E940E0260E071
:1000A00070E080E090E00E940E0260E070E080E08E
:1000B00090E00E94C70386E390E0DC018C91882FDA
:1000C00090E081709927892BB1F789818F5F8983AF
:1000D0008BE390E02981FC01208380E090E0A8EC94
:1000E000B2E48A839B83AC83BD8320E030E04AE79F
:1000F00053E46A817B818C819D810E9412086C8B04
:100100007D8B8E8B9F8B8C899D89AE89BF898E83D9
:100110009F83A887B98720E030E040E85FE36E81E5
:100120007F81888599850E948C0788232CF481E043
:1001300090E09B878A8754C020E03FEF4FE757E469
:100140006E817F81888599850E940D081816D4F5E7
:1001500020E030E040E251E46A817B818C819D8126
:100160000E941208688F798F8A8F9B8F888D998D56
:10017000AA8DBB8D888B998BAA8BBB8B688979895B
:100180008A899B890E9491076C8F7D8F8E8F9F8FAC
:10019000AC8DBD8DBB87AA8710C089E190E09D879B
:1001A0008C878C859D850197F1F79D878C87000052
:1001B0008A859B8501979B878A878A859B85892B62
:1001C00061F719C06E817F81888599850E949107AA
:1001D00068A379A38AA39BA3E8A1F9A1FB87EA8777
:1001E0008A859B859F878E878E859F850197F1F7EE
:1001F0009F878E8700005FCFCF93DF93CDB7DEB7A9
:1002000028970FB6F894DEBF0FBECDBF9C838B83BB
:100210007E836D8358874F831A8219828B819C81DC
:10022000049728F084E090E09A838983ECC08D8164
:100230009E81089728F085E090E09A838983E3C047
:100240008F819885039728F086E090E09A838983D0
:10025000DAC08B819C81039709F4A5C08B819C81B6
:10026000049708F0CFC08B819C81029709F46CC081
:100270008B819C81039708F0C5C08B819C81892B61
:1002800029F08B819C81019781F1BCC08F81988579
:100290000297F1F08F819885039728F58F819885D3
:1002A000892B29F08F819885019739F01CC08AE34A
:1002B00090E0E82FF92F808117C08AE390E0E82FC3
:1002C000F92F80818BE390E0E82FF92F80810CC01B
:1002D0008AE390E0E82FF92F80818BE390E0E82F0C
:1002E000F92F808101C000008EC08F819885029710
:1002F000F1F08F819885039728F58F819885892B58
:1003000029F08F819885019739F01CC087E390E030
:10031000E82FF92F808117C087E390E0E82FF92FAD
:10032000808188E390E0E82FF92F80810CC087E37B
:1003300090E0E82FF92F808188E390E0E82FF92FF3
:10034000808101C000005FC08F8198850297F1F025
:100350008F819885039728F58F819885892B29F0BF
:100360008F819885019739F01CC084E390E0E82FD5
:10037000F92F808117C084E390E0E82FF92F808166
:1003800085E390E0E82FF92F80810CC084E390E0B2
:10039000E82FF92F808185E390E0E82FF92F808105
:1003A00001C0000030C08F8198850297F1F08F81E5
:1003B0009885039728F58F819885892B29F08F815F
:1003C0009885019739F01CC081E390E0E82FF92F60
:1003D000808117C081E390E0E82FF92F808182E3CC
:1003E00090E0E82FF92F80810CC081E390E0E82FA6
:1003F000F92F808182E390E0E82FF92F808101C0FE
:10040000000001C0000089819A8128960FB6F894F7
:10041000DEBF0FBECDBFDF91CF910895CF93DF93A5
:1004200000D000D000D0CDB7DEB79C838B837E8315
:100430006D831A8219828B819C81049728F084E055
:1004400090E09A838983EBC08D819E81039728F089
:1004500086E090E09A838983E2C08B819C81039738
:1004600009F4ABC08B819C81049708F0D7C08B81C5
:100470009C81029709F470C08B819C81039708F0DE
:10048000CDC08B819C81892B29F08B819C81019728
:1004900091F1C4C08D819E81029701F18D819E8171
:1004A000039738F58D819E81892B29F08D819E815E
:1004B000019741F01EC08AE390E02FEFE82FF92F5B
:1004C000208318C08AE390E0E82FF92F10828BE395
:1004D00090E02FEFE82FF92F20830CC08AE390E003
:1004E000E82FF92F10828BE390E0E82FF92F10828C
:1004F00001C0000094C08D819E81029701F18D8121
:100500009E81039738F58D819E81892B29F08D81FD
:100510009E81019741F01EC087E390E02FEFE82F06
:10052000F92F208318C087E390E0E82FF92F10827D
:1005300088E390E02FEFE82FF92F20830CC087E3AA
:1005400090E0E82FF92F108288E390E0E82FF92F50
:10055000108201C0000063C08D819E81029701F16D
:100560008D819E81039738F58D819E81892B29F09D
:100570008D819E81019741F01EC084E390E02FEFB2
:10058000E82FF92F208318C084E390E0E82FF92F9B
:10059000108285E390E02FEFE82FF92F20830CC025
:1005A00084E390E0E82FF92F108285E390E0E82FB4
:1005B000F92F108201C0000032C08D819E81029708
:1005C00001F18D819E81039738F58D819E81892B64
:1005D00029F08D819E81019741F01EC081E390E05A
:1005E0002FEFE82FF92F208318C081E390E0E82F48
:1005F000F92F108282E390E02FEFE82FF92F20836C
:100600000CC081E390E0E82FF92F108282E390E0A4
:10061000E82FF92F108201C0000001C0000089817D
:100620009A8126960FB6F894DEBF0FBECDBFDF913C
:10063000CF910895CF93DF93CDB7DEB728970FB64C
:10064000F894DEBF0FBECDBF9C838B837E836D830A
:1006500058874F831A8219828B819C81049728F0D6
:1006600084E090E09A83898387C08D819E8108977A
:1006700028F085E090E09A8389837EC08F819885F9
:10068000029728F086E090E09A83898375C08B8179
:100690009C81039709F459C08B819C81049708F0D1
:1006A0006AC08B819C810297D1F18B819C810397D9
:1006B00008F061C08B819C81892B29F08B819C8102
:1006C0000197B9F058C08F819885892B29F08F81C7
:1006D0009885019739F00CC08BE390E0E82FF92F53
:1006E000808106C08BE390E0E82FF92F8081000025
:1006F00043C08F819885892B29F08F819885019738
:1007000039F00CC088E390E0E82FF92F808106C013
:1007100088E390E0E82FF92F808100002DC08F81C1
:100720009885892B29F08F819885019739F00CC025
:1007300085E390E0E82FF92F808106C085E390E003
:10074000E82FF92F8081000017C08F819885892BB1
:1007500029F08F819885019739F00CC082E390E0F1
:10076000E82FF92F808106C082E390E0E82FF92F6F
:100770008081000001C0000089819A8128960FB60F
:10078000F894DEBF0FBECDBFDF91CF910895CF9318
:10079000DF9300D000D000D0CDB7DEB79C838B8331
:1007A0007E836D831A8219828B819C81049728F045
:1007B00084E090E09A83898382C08D819E81029734
:1007C00028F086E090E09A83898379C08B819C81B0
:1007D000039709F45CC08B819C81049708F06EC07C
:1007E0008B819C810297E1F18B819C81039708F0BA
:1007F00065C08B819C81892B29F08B819C8101971D
:10080000C1F05CC08D819E81892B29F08D819E81F4
:10081000019739F00DC08BE390E0E82FF92F10829B
:1008200007C08BE390E02FEFE82FF92F2083000023
:1008300046C08D819E81892B29F08D819E810197F3
:1008400039F00DC088E390E0E82FF92F108207C03F
:1008500088E390E02FEFE82FF92F208300002FC0CE
:100860008D819E81892B29F08D819E81019739F0A0
:100870000DC085E390E0E82FF92F108207C085E3D3
:1008800090E02FEFE82FF92F2083000018C08D8112
:100890009E81892B29F08D819E81019739F00DC0B1
:1008A00082E390E0E82FF92F108207C082E390E006
:1008B0002FEFE82FF92F2083000001C0000089816D
:1008C0009A8126960FB6F894DEBF0FBECDBFDF919A
:1008D000CF910895CF93DF93CDB7DEB728970FB6AA
:1008E000F894DEBF0FBECDBF9C838B837E836D8368
:1008F00058874F831A8219828B819C81049728F034
:1009000084E090E09A838983FCC28D819E81089760
:1009100028F085E090E09A838983F3C28B819C81E3
:10092000039709F438C28B819C81049708F0E8C2D0
:100930008B819C81029709F479C18B819C810397FB
:1009400008F0DEC28B819C81892B31F08B819C81E8
:10095000019709F4B6C0D4C28D819E81882F992F4A
:10096000A0E0B0E088309105A105B10508F0A7C06E
:100970008755974F8F939F93089589E390E0E82FD1
:10098000F92F8081882F90E081709927282F392FA7
:100990008F819885E82FF92F3183208391C089E3D7
:1009A00090E0E82FF92F80818695882F90E0817064
:1009B0009927282F392F8F819885E82FF92F318398
:1009C00020837EC089E390E0E82FF92F808186950F
:1009D0008695882F90E081709927282F392F8F8155
:1009E0009885E82FF92F318320836AC089E390E04E
:1009F000E82FF92F8081869586958695882F90E03F
:100A000081709927282F392F8F819885E82FF92F0A
:100A10003183208355C089E390E0E82FF92F80814E
:100A200082958F70882F90E081709927282F392F19
:100A30008F819885E82FF92F3183208341C089E386
:100A400090E0E82FF92F8081829586958770882F16
:100A500090E081709927282F392F8F819885E82F72
:100A6000F92F318320832CC089E390E0E82FF92F00
:100A700080818295869586958370882F90E081701D
:100A80009927282F392F8F819885E82FF92F3183C7
:100A9000208316C089E390E0E82FF92F8081881F1A
:100AA0008827881F882F90E081709927282F392F59
:100AB0008F819885E82FF92F3183208301C00000B2
:100AC00020C28D819E81882F992FA0E0B0E08830D0
:100AD0009105A105B10508F0A7C08F54974F8F93DA
:100AE0009F93089586E390E0E82FF92F8081882F67
:100AF00090E081709927282F392F8F819885E82FD2
:100B0000F92F3183208391C086E390E0E82FF92FFD
:100B100080818695882F90E081709927282F392F22
:100B20008F819885E82FF92F318320837EC086E35B
:100B300090E0E82FF92F808186958695882F90E0A8
:100B400081709927282F392F8F819885E82FF92FC9
:100B5000318320836AC086E390E0E82FF92F8081FB
:100B6000869586958695882F90E081709927282F05
:100B7000392F8F819885E82FF92F3183208355C035
:100B800086E390E0E82FF92F808182958F70882F7F
:100B900090E081709927282F392F8F819885E82F31
:100BA000F92F3183208341C086E390E0E82FF92FAD
:100BB0008081829586958770882F90E08170992733
:100BC000282F392F8F819885E82FF92F31832083A3
:100BD0002CC086E390E0E82FF92F808182958695DE
:100BE00086958370882F90E081709927282F392F60
:100BF0008F819885E82FF92F3183208316C086E3F3
:100C000090E0E82FF92F8081881F8827881F882F80
:100C100090E081709927282F392F8F819885E82FB0
:100C2000F92F3183208301C000006BC18D819E812B
:100C3000882F992FA0E0B0E088309105A105B1057B
:100C400008F0A7C08754974F8F939F93089583E32D
:100C500090E0E82FF92F8081882F90E0817099270C
:100C6000282F392F8F819885E82FF92F3183208302
:100C700091C083E390E0E82FF92F80818695882F3B
:100C800090E081709927282F392F8F819885E82F40
:100C9000F92F318320837EC083E390E0E82FF92F82
:100CA000808186958695882F90E081709927282FDE
:100CB000392F8F819885E82FF92F318320836AC0DF
:100CC00083E390E0E82FF92F8081869586958695BD
:100CD000882F90E081709927282F392F8F81988550
:100CE000E82FF92F3183208355C083E390E0E82F6C
:100CF000F92F808182958F70882F90E081709927DD
:100D0000282F392F8F819885E82FF92F3183208361
:100D100041C083E390E0E82FF92F8081829586958A
:100D20008770882F90E081709927282F392F8F8125
:100D30009885E82FF92F318320832CC083E390E03E
:100D4000E82FF92F80818295869586958370882F6C
:100D500090E081709927282F392F8F819885E82F6F
:100D6000F92F3183208316C083E390E0E82FF92F19
:100D70008081881F8827881F882F90E0817099279D
:100D8000282F392F8F819885E82FF92F31832083E1
:100D900001C00000B6C08D819E81882F992FA0E0F0
:100DA000B0E088309105A105B10508F0A7C08F53C8
:100DB000974F8F939F93089580E390E0E82FF92F4A
:100DC0008081882F90E081709927282F392F8F817B
:100DD0009885E82FF92F3183208391C080E390E03C
:100DE000E82FF92F80818695882F90E081709927D0
:100DF000282F392F8F819885E82FF92F3183208371
:100E00007EC080E390E0E82FF92F8081869586955B
:100E1000882F90E081709927282F392F8F8198850E
:100E2000E82FF92F318320836AC080E390E0E82F18
:100E3000F92F8081869586958695882F90E0817020
:100E40009927282F392F8F819885E82FF92F318303
:100E5000208355C080E390E0E82FF92F80818295B0
:100E60008F70882F90E081709927282F392F8F81DC
:100E70009885E82FF92F3183208341C080E390E0EB
:100E8000E82FF92F8081829586958770882F90E0D2
:100E900081709927282F392F8F819885E82FF92F76
:100EA000318320832CC080E390E0E82FF92F8081EC
:100EB0008295869586958370882F90E0817099271A
:100EC000282F392F8F819885E82FF92F31832083A0
:100ED00016C080E390E0E82FF92F8081881F8827D3
:100EE000881F882F90E081709927282F392F8F81B4
:100EF0009885E82FF92F3183208301C0000001C0BD
:100F0000000089819A8128960FB6F894DEBF0FBE43
:100F1000CDBFDF91CF9108950E94C00708F481E012
:100F200008950E94EC0788F09F5798F0B92F9927F1
:100F3000B751B0F0E1F0660F771F881F991F1AF0C4
:100F4000BA95C9F714C0B13091F00E940608B1E01B
:100F500008950C940608672F782F8827B85F39F01A
:100F6000B93FCCF3869577956795B395D9F73EF45D
:100F700090958095709561957F4F8F4F9F4F089505
:100F8000990F0008550FAA0BE0E8FEEF161617069A
:100F9000E807F907C0F012161306E407F50798F002
:100FA000621B730B840B950B39F40A2661F0232B1B
:100FB000242B252B21F408950A2609F4A140A69597
:100FC0008FEF811D811D089557FD9058440F551FC7
:100FD00059F05F3F71F04795880F97FB991F61F0BB
:100FE0009F3F79F087950895121613061406551F32
:100FF000F2CF4695F1DF08C0161617061806991F9E
:10100000F1CF86957105610508940895E894BB2792
:1010100066277727CB0197F908950E94C00708F447
:101020008FEF08950E9425080C9496080E94880866
:1010300038F00E948F0820F0952311F00C947F085F
:101040000C94850811240C9407080E94E40770F39F
:10105000959FC1F3950F50E0551F629FF001729F5D
:10106000BB27F00DB11D639FAA27F00DB11DAA1F6C
:10107000649F6627B00DA11D661F829F2227B00DB9
:10108000A11D621F739FB00DA11D621F839FA00D44
:10109000611D221F749F3327A00D611D231F849F94
:1010A000600D211D822F762F6A2F11249F575040EB
:1010B0009AF0F1F088234AF0EE0FFF1FBB1F661F66
:1010C000771F881F91505040A9F79E3F510580F02F
:1010D0000C947F080C9407085F3FE4F3983ED4F328
:1010E000869577956795B795F795E7959F5FC1F7D3
:1010F000FE2B880F911D9695879597F9089597F97E
:101100009F6780E870E060E008959FEF80EC0895AD
:1011100000240A94161617061806090608950024D6
:101120000A9412161306140605060895092E039450
:10113000000C11F4882352F0BB0F40F4BF2B11F4C4
:1011400060FF04C06F5F7F4F8F4F9F4F0895F894EB
:10115000FFCF13CC24CC36CC49CC5DCC70CC84CC26
:1011600099CCC0CCD1CCE3CCF6CC0ACD1DCD31CDC1
:1011700046CD6DCD7ECD90CDA3CDB7CDCACDDECD44
:10118000F3CD1ACE2BCE3DCE50CE64CE77CE8BCEC5
:02119000A0CEEF
:00000001FF
